:100000005CC000007FC000007DC000007BC000001D
:1000100079C0000077C0000075C0000073C0000008
:1000200071C000006FC000006DC000006BC0000018
:1000300069C0000067C0000065C0000063C0000028
:100040002AC400005FC0000035C2000073C2000077
:1000500059C0000057C0000055C0000053C0000048
:1000600051C000004FC00000000000080002010065
:100070000003040700000000000000000102040863
:100080001020408001020408102001020408102002
:10009000040404040404040402020202020203032E
:1000A0000303030300000000250028002B000000CC
:1000B0000000240027002A00BF0211241FBECFEF3A
:1000C000D8E0DEBFCDBF12E0A0E0B1E0E0E3FDE0AC
:1000D00002C005900D92A030B107D9F712E0A0E060
:1000E000B2E001C01D92AA3AB107E1F710E0CAEBF5
:1000F000D0E003C02297FE0106D6C83BD107D1F756
:100100009ED014C67DCFCF93DF9300D000D000D017
:10011000CDB7DEB79A8389834B835C836D837E83FF
:100120008B819C81AD81BE81E981FA8126E0AC01A1
:10013000BD01CF015FD126960FB6F894DEBF0FBE8A
:10014000CDBFDF91CF910895CF93DF93CDB7DEB7C9
:1001500040E855E260E070E084E092E0D4DFDF91B7
:10016000CF910895AF92BF92CF92DF92EF92FF921C
:100170000F931F93CF93DF93CDB7DEB78EE058D4A4
:1001800090930102809300028091000290910102FD
:10019000AA2797FDA095BA2F1F921F921F922FEFAB
:1001A0002F93A12CB12C6501EE24EA9413E0F12EDB
:1001B00000E010E020E030E0A901BC01CD0126D331
:1001C0000F900F900F900F90DC01CB0190930302E2
:1001D000809302028091020290910302BC0189E0A7
:1001E00044D469EC71E084E092E04AD2809100024C
:1001F000909101024AE050E0BC0184E092E0E9D233
:1002000063ED71E084E092E03BD280910202909134
:1002100003024AE050E0BC0184E092E0E1D262E0F7
:1002200070E080E090E0A4D3DF91CF911F910F9117
:10023000FF90EF90DF90CF90BF90AF900895CF9355
:10024000DF93CDB7DEB7B9D37FDF8CDFFECFFC0104
:10025000818D228D90E0805C9F4F821B91098F736E
:1002600099270895FC01918D828D981731F0828D28
:10027000E80FF11D858D90E008958FEF9FEF0895B1
:10028000FC01918D828D981761F0828DDF01A80F9E
:10029000B11D5D968C91928D9F5F9F73928F90E0C0
:1002A00008958FEF9FEF0895FC01848DDF01A80F63
:1002B000B11DA35ABF4F2C91848D90E001968F738E
:1002C0009927848FA689B7892C93A089B1898C91AD
:1002D00080648C93938D848D981306C00288F38973
:1002E000E02D80818F7D80830895CF93DF93EC0193
:1002F000888D8823C1F0EA89FB89808185FD05C04E
:10030000A889B9898C9186FD0EC00FB607FCF5CF80
:10031000808185FFF2CFA889B9898C9185FFEDCFC7
:10032000CE01C2DFE8CFDF91CF910895CF92DF9267
:10033000FF920F931F93CF93DF931F92CDB7DEB73A
:100340006C0181E0D60158968C9358975B969C91EE
:100350005B975C968C915C97981307C05096ED91D3
:10036000FC915197808185FD2DC0F601038D10E031
:100370000F5F1F4F0F731127F02EF601848DF812B7
:1003800010C00FB607FCF9CFD6015096ED91FC9145
:100390005197808185FFF1CFC601698385DF69812F
:1003A000ECCF838DE80FF11DE35AFF4F6083D60138
:1003B0005B960C935B975296ED91FC9153978081DD
:1003C00080620CC0D6015696ED91FC9157976083E0
:1003D0005096ED91FC91519780818064808381E0FB
:1003E00090E00F90DF91CF911F910F91FF90DF90E0
:1003F000CF900895BF92CF92DF92EF92FF92CF936A
:10040000DF93EC016A017B01B22EE889F98982E071
:100410008083411581EE58076105710599F060E010
:1004200079E08DE390E0A701960123D421503109B2
:10043000410951095695479537952795211580E132
:10044000380790F0E889F989108260E874E88EE155
:1004500090E0A70196010DD42150310941095109BD
:100460005695479537952795EC85FD853083EE8524
:10047000FF852083188EEC89FD89B082EA89FB898B
:10048000808180618083EA89FB89808188608083A4
:10049000EA89FB89808180688083EA89FB89808181
:1004A0008F7D8083DF91CF91FF90EF90DF90CF9091
:1004B000BF9008951F920F920FB60F9211242F93A1
:1004C0003F934F935F936F937F938F939F93AF93DC
:1004D000BF93EF93FF93E0911402F0911502808196
:1004E000E0911A02F0911B0282FD12C0908180916E
:1004F0001D028F5F8F7320911E02821751F0E091D1
:100500001D02F0E0EC5FFD4F958F80931D0201C04E
:100510008081FF91EF91BF91AF919F918F917F91DA
:100520006F915F914F913F912F910F900FBE0F9060
:100530001F9018951F920F920FB60F9211242F93B0
:100540003F934F935F936F937F938F939F93AF935B
:10055000BF93EF93FF9384E092E0A6DEFF91EF91CB
:10056000BF91AF919F918F917F916F915F914F91CB
:100570003F912F910F900FBE0F901F9018951092E2
:1005800007021092060288EE93E0A0E0B0E08093AC
:10059000080290930902A0930A02B0930B0283EE23
:1005A00091E0909305028093040285EC90E0909393
:1005B00011028093100284EC90E0909313028093D8
:1005C000120280EC90E0909315028093140281EC6B
:1005D00090E0909317028093160282EC90E0909343
:1005E00019028093180286EC90E090931B0280938E
:1005F0001A0210921D0210921E0210921F021092F7
:1006000020020895CF92DF92EF92FF920F931F93F3
:10061000CF93DF937C016A01EB0100E010E00C1541
:100620001D0571F06991D701ED91FC910190F08168
:10063000E02DC7010995892B19F00F5F1F4FEFCFF0
:10064000C801DF91CF911F910F91FF90EF90DF9044
:10065000CF9008956115710581F0DB010D900020A8
:10066000E9F7AD0141505109461B570BDC01ED91F3
:10067000FC910280F381E02D099480E090E00895E0
:10068000E9CFDC01ED91FC910190F081E02D09941E
:100690006FEE71E0DFCF8F929F92AF92BF92CF92B9
:1006A000DF92EF92FF920F931F93CF93DF93CDB71B
:1006B000DEB7A1970FB6F894DEBF0FBECDBF7C01A9
:1006C000C42EE52FCB01D22E19A221E02D1510F05A
:1006D0002AE0D22E8E010F5D1F4F8D2C912CA12C64
:1006E000B12C6C2D7E2FA5019401C3D28C2DD29EEE
:1006F00080191124015011098A3010F4805D01C065
:10070000895CF8018083211531054105510521F0EF
:10071000C22EE32FCA01E5CFB801C7019BDFA19626
:100720000FB6F894DEBF0FBECDBFDF91CF911F9102
:100730000F91FF90EF90DF90CF90BF90AF909F9080
:100740008F900895CF92DF92EF92FF920F931F93B5
:10075000CF93DF93EC016A017B012115310579F418
:10076000E881F9810190F081E02D642FDF91CF9134
:100770001F910F91FF90EF90DF90CF9009942A3056
:100780003105D9F477FF18C06DE27BDF8C01442777
:100790005527BA014C195D096E097F092AE0CE017F
:1007A0007ADF800F911FDF91CF911F910F91FF9002
:1007B000EF90DF90CF9008952AE0B701A601CE0117
:1007C000DF91CF911F910F91FF90EF90DF90CF902D
:1007D00062CF9A01AB01662757FD6095762FB2CFA5
:1007E0000F931F93CF93DF93EC019A01AB01662720
:1007F00057FD6095762FA6DF8C01CE0149DF800F73
:10080000911FDF91CF911F910F9108954F925F92A9
:100810006F927F92AF92BF92CF92DF92EF92FF9250
:100820000F931F93CF93DF93CDB7DEB729013A0122
:10083000621B730B840B950B29893A894B895C8960
:100840002A193B094C095D09298B3A8B4B8B5C8B30
:100850009B01AC0169897A898B899C89FBD1E41859
:10086000F50806091709A801970125D22A0D3B1D95
:100870004C1D5D1DCA01B901DF91CF911F910F91F0
:10088000FF90EF90DF90CF90BF90AF907F906F90F0
:100890005F904F9008951F920F920FB60F92112400
:1008A0002F933F938F939F93AF93BF938091A20217
:1008B0009091A302A091A402B091A5023091A1024F
:1008C00023E0230F2D3720F40196A11DB11D05C093
:1008D00026E8230F0296A11DB11D2093A10280934B
:1008E000A2029093A302A093A402B093A5028091C8
:1008F000A6029091A702A091A802B091A902019628
:10090000A11DB11D8093A6029093A702A093A802F7
:10091000B093A902BF91AF919F918F913F912F9179
:100920000F900FBE0F901F9018953FB7F8948091CD
:10093000A6029091A702A091A802B091A90226B5A3
:10094000A89B05C02F3F19F00196A11DB11D3FBF07
:100950006627782F892F9A2F620F711D811D911D97
:1009600042E0660F771F881F991F4A95D1F70895B7
:10097000CF92DF92EF92FF92CF93DF936B017C01D6
:10098000D4DFEB01C114D104E104F10479F061D1A9
:10099000CCDF6C1B7D0B683E7340A0F381E0C81A6E
:1009A000D108E108F108C851DC4FECCFDF91CF91BD
:1009B000FF90EF90DF90CF900895789484B5826097
:1009C00084BD84B5816084BD85B5826085BD85B5F3
:1009D000816085BDEEE6F0E0808181608083E1E8A2
:1009E000F0E01082808182608083808181608083DA
:1009F000E0E8F0E0808181608083E1EBF0E08081DD
:100A000084608083E0EBF0E0808181608083EAE7AE
:100A1000F0E0808184608083808182608083808137
:100A2000816080838081806880831092C1000895F6
:100A30008E3008F08E5087702091C80190E4299F75
:100A400090011124822B80937C0080917A00806435
:100A500080937A0080917A0086FDFCCF80917800A7
:100A60002091790090E0922B08951F93CF93DF930C
:100A7000182FEB0161E07FD0209711F460E004C0F3
:100A8000CF3FD10531F461E0812FDF91CF911F91EC
:100A9000ABC0E12FF0E0E859FF4FE491E330F9F00B
:100AA00048F4E130B9F0E230A1F584B5806284BD4C
:100AB000C8BD34C0E730E9F0E83019F1E43049F559
:100AC00080918000806280938000D0938B00C093DF
:100AD0008A0024C084B5806884BDC7BD1FC08091D2
:100AE0008000806880938000D0938900C093880044
:100AF00015C08091B00080688093B000C093B300AF
:100B00000DC08091B00080628093B000C093B400AB
:100B100005C0C038D1050CF0B6CFB0CFDF91CF9172
:100B20001F910895833081F028F4813099F082304C
:100B3000A1F008958730A9F08830B9F08430D1F45D
:100B4000809180008F7D03C0809180008F7780939B
:100B50008000089584B58F7702C084B58F7D84BDF1
:100B600008958091B0008F7703C08091B0008F7D91
:100B70008093B0000895CF93DF9390E0FC01E45898
:100B8000FF4F2491FC01E057FF4F8491882349F1E6
:100B900090E0880F991FFC01E255FF4FA591B49199
:100BA0008C559F4FFC01C591D4919FB7611108C02E
:100BB000F8948C91209582238C93888182230AC09B
:100BC000623051F4F8948C91322F309583238C93BA
:100BD0008881822B888304C0F8948C91822B8C931B
:100BE0009FBFDF91CF9108950F931F93CF93DF9312
:100BF0001F92CDB7DEB7282F30E0F901E859FF4F3B
:100C00008491F901E458FF4F1491F901E057FF4F27
:100C100004910023C1F0882319F0698383DF69817F
:100C2000E02FF0E0EE0FFF1FEC55FF4FA591B491C0
:100C30009FB7F8948C91611103C01095812301C076
:100C4000812B8C939FBF0F90DF91CF911F910F91BC
:100C500008950895DB018F939F9349D0BF91AF9181
:100C6000A29F800D911DA39F900DB29F900D112406
:100C70000895A1E21A2EAA1BBB1BFD010DC0AA1FDD
:100C8000BB1FEE1FFF1FA217B307E407F50720F0F5
:100C9000A21BB30BE40BF50B661F771F881F991F70
:100CA0001A9469F760957095809590959B01AC01B9
:100CB000BD01CF010895052E97FB16F400940FD0C7
:100CC00057FD05D0D6DF07FC02D046F408C050958A
:100CD0004095309521953F4F4F4F5F4F0895909528
:100CE0008095709561957F4F8F4F9F4F08950FD0DE
:100CF000A59F900DB49F900DA49F800D911D112470
:100D00000895EE0FFF1F0590F491E02D0994A29F26
:100D1000B001B39FC001A39F700D811D1124911DCF
:100D2000B29F700D811D1124911D0895F894FFCF7D
:100D300000000000000000000000000000000000B3
:100D400000000000000000000000000000000000A3
:100D50000000000000000000000000000000000093
:100D60000000000000000000000000000000000083
:100D70000000000000000000000000000000000073
:100D80000000000000000000000000000000000063
:100D90000000000000000000000000000000000053
:100DA0000000000000000000000000000000000043
:100DB0000000000000000000000000000000000033
:100DC0000000000000000000000000000000000023
:100DD0000000000000000000000000000000000013
:100DE0000000000000000000000000000000000003
:100DF00000000000010000000173656E736F722037
:100E00003D200009206F7574707574203D2000002E
:100E10000000009601020327014001320175010D17
:100E20000A006E616E00696E66006F7666002E00C5
:00000001FF
