:1000000079C000000C9476090C94A3099AC00000F2
:1000100098C0000096C0000094C0000092C000008C
:1000200090C000008EC000008CC000008AC000009C
:1000300088C0000086C0000084C0000082C00000AC
:100040000C94D0097EC0000087C60000C9C600001D
:1000500078C0000076C0000074C0000072C00000CC
:1000600070C000006EC000004101D001D301EB015F
:10007000EE01F101F4015702BA0202030B030E0371
:100080001103140317031A031D032003230326037C
:1000900029032C032F033203000000070002010094
:1000A0000003040600000000000000000102040834
:1000B00010204080010204081020010204081020D2
:1000C00004040404040404040202020202020303FE
:1000D00003030303000000002300260029000000A2
:1000E0000000250028002B0000000000240027004D
:1000F0002A00B60711241FBECFEFD8E0DEBFCDBF68
:1001000018E0A0E0B1E0E8E5F7E102C005900D924B
:10011000AA34B107D9F729E0AAE4B8E001C01D92DA
:10012000A830B207E1F710E0C4EFD0E004C0229796
:10013000FE010E94920BC23FD107C9F748D50C942B
:10014000AA0B5ECF8EBD0DB407FEFDCF8EB5089510
:1001500061E084E00E94C50A61E085E00E94C50A72
:1001600061E08BE00E94C50A60E08CE00E94C50A55
:1001700061E08DE00E94C50A68EF71E081E598E0DA
:10018000A3D781E03AD580E041D584E044D561E051
:1001900084E00E94FE0A61E085E00E94FE0A1BD511
:1001A0006DE072E081E598E08FC7CF93DF93D82FA1
:1001B000C62F60E085E00E94FE0A81E38D0FC2DF5A
:1001C00080934C088C2FBEDF80934D0861E085E062
:1001D0000E94FE0A67E172E081E598E05BD74AE0A1
:1001E00050E06D2F81E598E00E943B096EE272E0DD
:1001F00081E598E04FD74AE050E06C2F81E598E028
:100200000E943B0964E372E081E598E0DF91CF91C1
:100210005BC78F929F92AF92BF92CF92DF92EF9285
:10022000FF920F931F93CF93DF93982E862E60E05B
:1002300085E00E94FE0A892D85DF80934C0880E0CE
:1002400081DF80934D0861E085E00E94FE0A81E035
:10025000881274C26BE372E081E598E01BD74AE034
:1002600050E0692D81E598E00E943B09892D90E0DE
:100270008831910508F062C2FC01EC5CFF4F0C94E0
:10028000900B6DE372E081E598E004D74AE050E01E
:1002900060914D0881E598E0F4D760E572E081E572
:1002A00098E0F8D680914D0880FF03C06BE572E0BE
:1002B00002C06FE572E081E598E006D763E672E080
:1002C00081E598E0E7D680914D0881FF03C06DE697
:1002D00072E002C066E772E081E598E0F5D661E879
:1002E00072E081E598E0D6D680914D0882FF03C088
:1002F00069E872E002C060E972E081E598E0E4D666
:1003000066E972E081E598E0C5D680914D0883FFEB
:1003100003C060EA72E002C068EA72E081E598E03A
:10032000D3D661EB72E081E598E0B4D680914D08B8
:1003300084FF03C060EC72E002C067EE72E081E50A
:1003400098E0C2D66DE173E081E598E0A3D6809194
:100350004D0885FF03C060EC72E002C06BE273E001
:1003600081E598E0B1D660E673E081E598E092D649
:1003700080914D0886FF03C060EC72E002C06EE61B
:1003800073E081E598E0DF91CF911F910F91FF908D
:10039000EF90DF90CF90BF90AF909F908F9094C6DA
:1003A00063EA73E002C069EC73E081E598E072D61D
:1003B0004AE050E060914D0881E598E0DF91CF91EF
:1003C0001F910F91FF90EF90DF90CF90BF90AF9073
:1003D0009F908F9056C764EF73E0E7CF61E274E0BF
:1003E000E4CF6AE574E0E1CF67E774E081E598E087
:1003F00051D64AE050E060914D0881E598E041D740
:100400006EE974E081E598E045D660914D0862FBA5
:10041000662760F94AE050E070E081E598E002D795
:1004200060914D08669561704AE050E070E081E5AA
:1004300098E0FFD66AEA74E081E598E02BD66091F7
:100440004D0863FB662760F94AE050E070E081E503
:1004500098E0EFD668EB74E081E598E01BD66091F8
:100460004D08629561704AE050E070E081E598E0E7
:10047000E0D664EC74E081E598E00CD660914D081C
:1004800065FB662760F94AE050E070E081E598E09E
:10049000D0D661ED74E081E598E0FCD560914D081F
:1004A000661F6627661F70E04AE050E038C16EEDB7
:1004B00074E081E598E0EED54AE050E060914D08A7
:1004C00081E598E0DED662EF74E081E598E0E2D560
:1004D00080914D0880FF03C06DEF74E002C06AE0B8
:1004E00075E081E598E0F0D56BE175E081E598E095
:1004F000D1D520914D0821FF06C066E275E081E567
:1005000098E0E2D515C021FB002700F910E022FB9E
:10051000AA24A0F8B12CAA0CBB1C0A0D1B1D247028
:10052000020F111D4AE050E0B80181E598E081D644
:1005300064E375E081E598E0ADD560914D08629582
:1005400061704AE050E070E081E598E072D668E4BE
:1005500075E081E598E09ED560914D0865FB6627C2
:1005600060F94AE050E070E081E598E062D66BE522
:1005700075E0CAC06EE675E081E598E08BD54AE08B
:1005800050E060914D0881E598E07BD660EA75E027
:1005900081E598E07FD560914D086F7070E04AE08A
:1005A00050E081E598E045D66BEA75E081E598E09A
:1005B00071D580914D0884FB992790F9C92F90E05F
:1005C000D92F85FBCC24C0F8D12CCC0CDD1CCC0D54
:1005D000DD1D86FBEE24E0F8F12CEE0CFF1CEE0C8A
:1005E000FF1CCE0DDF1D881F8827881F90E033E099
:1005F000880F991F3A95E1F7C80FD91F4AE050E0DC
:10060000BE018DC067EB75E081E598E043D5609150
:100610004D08617081C06FED75E0C7CE61EF75E088
:10062000C4CE63E076E0C1CE65E176E0BECE67E29F
:1006300076E0BBCE69E376E0B8CE6BE476E0B5CE8B
:100640006AE576E0B2CE61E776E0AFCE68E876E0C4
:10065000ACCE6FE976E0A9CE66EB76E0A6CE6DEC87
:1006600076E0A3CE64EE76E081E598E013D54AE02B
:1006700050E060914D0881E598E003D66CEF76E09C
:1006800081E598E007D580914D0880FF03C068E0C0
:1006900077E002C066E177E081E598E015D56CEF80
:1006A00076E081E598E0F6D480914D0881FF03C0A3
:1006B00066E277E002C063E377E081E598E004D585
:1006C00062E577E081E598E0E5D480914D0884FF0C
:1006D00003C06EE577E002C06CE677E081E598E064
:1006E000F3D462EF74E081E598E0D4D480914D08B2
:1006F00085FF03C06DEF74E002C06CE777E081E531
:1007000098E0E2D46BE977E081E598E0C3D46091AA
:100710004D0866FB662760F94AE050E070E081E52D
:1007200098E0DF91CF911F910F91FF90EF90DF90B4
:10073000CF90BF90AF909F908F907BC5DF91CF916E
:100740001F910F91FF90EF90DF90CF90BF90AF90EF
:100750009F908F9008950F931F93CF93DF931F92D5
:10076000CDB7DEB7182F062F60E0498352DD8091A8
:100770004D084981413069F441E050E060E070E0AB
:1007800004C0440F551F661F771F0A95D2F7482BE8
:100790000DC041E050E060E070E004C0440F551F20
:1007A000661F771F0A95D2F74095482340934D085E
:1007B00060E085E023D780E2810FC4DC80934C08A1
:1007C00080914D08BFDC80934D0861E085E00F907B
:1007D000DF91CF911F910F9111C7EF92FF920F936D
:1007E0001F93CF93DF931F92CDB7DEB7082F162F3D
:1007F00060E085E0498302D781EEA4DC5CE4E52E6D
:1008000058E0F52EF701808361E085E0F7D660E0DF
:1008100085E0F4D680EA96DCF7018083802F92DCB5
:1008200080934D08812F8EDC80934E084981842F60
:1008300089DC80934F0861E085E0E0D660E084E0E9
:10084000DDD661E070E080E090E017D640E060E047
:1008500080E081DF61E070E080E090E00ED661E052
:1008600084E0CCD661E070E080E090E006D641E024
:1008700060E080E00F90DF91CF911F910F91FF908A
:10088000EF9069CF0F931F93CF93DF93182F062F0D
:10089000C0E0D0E0402F612F81E09FDF6FE070E08B
:1008A00080E090E0EAD580914B08811304C08091EC
:1008B0004A08081749F0C930D10541F46CED77E0DA
:1008C00081E598E001D402C0CAE0D0E02196CA30A8
:1008D000D10504F310924B0810924A08DF91CF9192
:1008E0001F910F9108950F931F93CF93DF93182FAC
:1008F000062FC0E0D0E0402F612F82E06EDF6FE076
:1009000070E080E090E0B9D580914B08811304C07D
:1009100080914A08081749F0C930D10541F46FEEBB
:1009200077E081E598E0D0D302C0CAE0D0E021961C
:10093000CA30D10504F310924B0810924A08DF9197
:10094000CF911F910F9108951F93CF93DF93182F8D
:10095000C0E0D0E0412F612F84E03FDF6FE070E026
:1009600080E090E08AD580914B08811303C080918C
:100970004A0810C0C930D10529F463E078E081E568
:1009800098E0A2D32196CA30D10521F710924B08E6
:1009900010924A08DF91CF911F91089583E0D4DF30
:1009A000811113C061E087E06DDF61E087E09BDFCC
:1009B00064E670E080E090E060D560E087E093DF7F
:1009C00064E670E080E090E058C50895CF93DF932F
:1009D00060E085E013D681E6B5DB80934C0880E0CB
:1009E000B1DB80934D0880E0ADDB80934E0880E062
:1009F000A9DB80934F0861E085E000D680914D0827
:100A0000813089F480914F08811104C060E08091A9
:100A10004E08BBD580914F08813099F561E08091F7
:100A20004E08B3D52EC0823089F480914F088111D1
:100A300004C060E080914E08E1D580914F0881307C
:100A400001F561E080914E08D9D51BC0833049F48F
:100A500080914E0880934B0880914F0880934A08FC
:100A600032C0843051F46AE070E080E090E005D557
:100A700080914E08F8D5482F0BC0853021F1863083
:100A800061F46AE070E080E090E0F7D440914F08B4
:100A900060914E0883E0A1DE16C08730A1F066E1C8
:100AA00078E081E598E010D3CDE4D8E0699181E564
:100AB00098E0F1D288E0C035D807C1F766EB77E05F
:100AC00081E598E001D360E085E098D582EE3ADBDD
:100AD00080934C0861E085E091D541E066E087E0D5
:100AE000DF91CF9138CE60E087E093DB80914D08B5
:100AF00084FF04C041E064E087E02DDE60E087E031
:100B000088DB80914D0885FF04C041E065E087E007
:100B100022DE60E087E07DDB80914D0886FF04C027
:100B200041E066E087E017CE0895CF93DF9340E081
:100B300052EC61E070E081E598E099D16FE278E0F5
:100B400081E598E0C1D264E670E080E090E095D461
:100B5000FFDA63E080E029DB61E087E05ADB41E017
:100B600060E080E0F8DD41E061E080E0F4DD41E05C
:100B700064E080E0F0DD41E065E080E0ECDD60E035
:100B800085E03CD582EEDEDACCE4D8E0888361E013
:100B900085E034D560E085E031D581EED3DA888315
:100BA00061E085E02BD59FDF64E670E080E090E0B7
:100BB00064D442E050E066EE74E080E077D360E019
:100BC00083E060DE61E083E0DF91CF918CCE79D469
:100BD000ACDFE4DEFECF61E08AE010D561E08AE0C0
:100BE000D4D48CB580618CBD8CB580648CBD61E043
:100BF0008DE0CBD461E08BE0C8C4811103C08CB51B
:100C0000806202C08CB58F7D8CBD08959CB5937FAA
:100C1000982B9CBD08952CB5982F93702C7F922B08
:100C20009CBD9DB582FB882780F99E7F982B9DBD3A
:100C30000895FC0124853585F901E05CFF4F808132
:100C40009181329620813181805C9F4F821B930B72
:100C500060E470E030C5FC0184859585FC01E05CB2
:100C6000FF4F4081518132962081318142175307D5
:100C700041F00190F081E02DE80FF91F808190E0B4
:100C800008958FEF9FEF0895FC0184859585FC0101
:100C9000E05CFF4F408151813296208131814217C3
:100CA000530779F0A081B181A80FB91F8C912081E1
:100CB00031812F5F3F4F2F7333273183208390E0A3
:100CC00008958FEF9FEF0895FC0181A1882329F0FB
:100CD000A489B5898C9186FFFBCF11A20895CF938B
:100CE000DF93FC0126853785D901A05CBF4F8D912C
:100CF0009C91119701968F739927E901CE5BDF4F85
:100D00004881598184179507D9F30D90BC91A02D86
:100D1000A20FB31F6C93A685B785A05CBF4F119639
:100D20009C938E93A689B7892C9181E090E0078CE3
:100D300002C0880F991F0A94E2F7282B2C9381E0B8
:100D400081A30488F589E02D80818064808381E01F
:100D500090E0DF91CF9108951F920F920FB60F92FE
:100D600011242F933F934F935F936F937F938F93B0
:100D70009F93AF93BF93EF93FF938091C00082FD49
:100D80001CC04091C6008091F7089091F808019628
:100D90008F7399272091F9083091FA0882179307E9
:100DA00071F0E091F708F091F808E954F74F4083AB
:100DB0009093F8088093F70802C08091C600FF91D5
:100DC000EF91BF91AF919F918F917F916F915F91C3
:100DD0004F913F912F910F900FBE0F901F9018953C
:100DE0001F920F920FB60F9211242F933F934F93A0
:100DF0005F936F937F938F939F93AF93BF93EF9383
:100E0000FF932091B3083091B4088091B508909178
:100E1000B6082817390731F48091C1008F7D80937F
:100E2000C10014C0E091B508F091B608ED58F74F35
:100E300020818091B5089091B60801968F7399270B
:100E40009093B6088093B5082093C600FF91EF9168
:100E5000BF91AF919F918F917F916F915F914F91D2
:100E60003F912F910F900FBE0F901F901895CF922A
:100E7000DF92EF92FF92CF93DF93EC016A017B0147
:100E8000411581EE580761057105F1F0EC89FD8986
:100E900081E090E008A002C0880F991F0A94E2F751
:100EA000808360E079E08DE390E0A701960116D49D
:100EB0002150310941095109569547953795279594
:100EC000211580E1380790F0EC89FD89108260E8F7
:100ED00074E88EE190E0A701960100D42150310919
:100EE000410951095695479537952795E889F9891C
:100EF0003083EA89FB89208319A2EE89FF8940812A
:100F000081E090E09C010C8C02C0220F331F0A94F8
:100F1000E2F7422B4083EE89FF8940819C010D8CD2
:100F200002C0220F331F0A94E2F7422B4083EE895E
:100F3000FF8940819C010E8C02C0220F331F0A944E
:100F4000E2F7422B4083EE89FF8920810F8C02C09B
:100F5000880F991F0A94E2F7809582238083DF919E
:100F6000CF91FF90EF90DF90CF90089510925408AA
:100F70001092530888EE93E0A0E0B0E0809355080B
:100F800090935608A0935708B09358088EE398E0C2
:100F9000909352088093510887EB98E090935E08F5
:100FA00080935D0883E798E09093600880935F08E2
:100FB00085EC90E0909362088093610884EC90E067
:100FC000909364088093630880EC90E090936608A7
:100FD0008093650881EC90E090936808809367089F
:100FE00082EC90E090936A088093690886EC90E028
:100FF00090936C0880936B0884E080936D0883E085
:1010000080936E0887E080936F0885E08093700876
:1010100081E0809371080895CF92DF92EF92FF9262
:101020000F931F93CF93DF936C017A01EB01E60ED0
:10103000F71E00E010E0CE15DF0561F06991D601E2
:10104000ED91FC910190F081E02DC6010995080F0A
:10105000191FF1CFC801DF91CF911F910F91FF9020
:10106000EF90DF90CF9008956115710581F0DB015D
:101070000D900020E9F7AD0141505109461B570B77
:10108000DC01ED91FC910280F381E02D099480E078
:1010900090E00895E9CFDC01ED91FC910190F081A1
:1010A000E02D09940F931F93CF93DF93EC016DE034
:1010B000F2DF8C016AE0CE01EEDF800F911FDF913D
:1010C000CF911F910F9108950F931F93CF93DF93AB
:1010D000EC01CADF8C01CE01E5DF800F911FDF91AB
:1010E000CF911F910F9108958F929F92AF92BF92CF
:1010F000CF92DF92EF92FF920F931F93CF93DF93E4
:10110000CDB7DEB7A1970FB6F894DEBF0FBECDBF47
:101110007C01C42EE52FCB01D22E19A221E02D1582
:1011200010F02AE0D22E8E010F5D1F4F8D2C912CD6
:10113000A12CB12C6C2D7E2FA5019401CFD28C2D2A
:10114000D29E80191124015011098A3010F4805D5B
:1011500001C0895CF80180832115310541055105E5
:1011600021F0C22EE32FCA01E5CFB801C7017CDF11
:10117000A1960FB6F894DEBF0FBECDBFDF91CF9121
:101180001F910F91FF90EF90DF90CF90BF90AF90A5
:101190009F908F900895CF92DF92EF92FF920F93DE
:1011A0001F93CF93DF93EC016A017B012115310579
:1011B00079F4E881F9810190F081E02D642FDF91CD
:1011C000CF911F910F91FF90EF90DF90CF900994F6
:1011D0002A303105D9F477FF18C06DE25CDF8C014D
:1011E00044275527BA014C195D096E097F092AE089
:1011F000CE017ADF800F911FDF91CF911F910F9168
:10120000FF90EF90DF90CF9008952AE0B701A601FC
:10121000CE01DF91CF911F910F91FF90EF90DF9062
:10122000CF9062CF9A01AB01662757FD6095762F6C
:10123000B2CF0F931F93CF93DF93EC019A01AB01D1
:10124000662757FD6095762FA6DF8C01CE012ADF39
:10125000800F911FDF91CF911F910F91089521155C
:10126000310541F4DC01ED91FC910190F081E02D1C
:10127000642F099439CF9A01462F50E060E070E066
:10128000EECF0F931F93CF93DF93EC019A01462F7C
:1012900050E060E070E0E3DF8C01CE0103DF800FFF
:1012A000911FDF91CF911F910F9108958230E8F443
:1012B000E82FF0E0EE0FFF1FE550F74F71836083DA
:1012C000813041F0809169008C7F842B809369008C
:1012D000E89A089580916900440F551F440F551FE7
:1012E000837F842B80936900E99A08951F920F925F
:1012F0000FB60F9211242F933F934F935F936F93E9
:101300007F938F939F93AF93BF93EF93FF938091BE
:10131000FB089091FC08892B29F0E091FB08F091E3
:10132000FC080995FF91EF91BF91AF919F918F912B
:101330007F916F915F914F913F912F910F900FBED1
:101340000F901F9018951F920F920FB60F921124B5
:101350002F933F934F935F936F937F938F939F93BD
:10136000AF93BF93EF93FF938091FD089091FE0898
:10137000892B29F0E091FD08F091FE080995FF9175
:10138000EF91BF91AF919F918F917F916F915F91FD
:101390004F913F912F910F900FBE0F901F90189576
:1013A0001F920F920FB60F9211242F933F938F939A
:1013B0009F93AF93BF938091000990910109A091F1
:1013C0000209B09103093091FF0823E0230F2D3764
:1013D00020F40196A11DB11D05C026E8230F029639
:1013E000A11DB11D2093FF0880930009909301096E
:1013F000A0930209B0930309809104099091050913
:10140000A0910609B09107090196A11DB11D809315
:10141000040990930509A0930609B0930709BF91A9
:10142000AF919F918F913F912F910F900FBE0F9091
:101430001F9018953FB7F894809104099091050981
:10144000A0910609B091070926B5A89B05C02F3FBA
:1014500019F00196A11DB11D3FBF6627782F892F76
:101460009A2F620F711D811D911D42E0660F771F3B
:10147000881F991F4A95D1F70895CF92DF92EF9276
:10148000FF92CF93DF936B017C01D4DFEB01C1149A
:10149000D104E104F10471F0CDDF6C1B7D0B683EDB
:1014A0007340A8F381E0C81AD108E108F108C851D7
:1014B000DC4FEDCFDF91CF91FF90EF90DF90CF9099
:1014C0000895789484B5826084BD84B5816084BDBC
:1014D00085B5826085BD85B5816085BDEEE6F0E0AD
:1014E000808181608083E1E8F0E010828081826009
:1014F0008083808181608083E0E8F0E0808181608A
:101500008083E1EBF0E0808184608083E0EBF0E0B9
:10151000808181608083EAE7F0E08081846080835D
:101520008081826080838081816080838081806807
:1015300080831092C1000895833081F028F48130B7
:1015400099F08230A1F008958630A9F08730B9F083
:101550008430D1F4809180008F7D03C08091800021
:101560008F7780938000089584B58F7702C084B50B
:101570008F7D84BD08958091B0008F7703C08091E6
:10158000B0008F7D8093B0000895CF93DF9390E0FB
:10159000FC01E455FF4F2491FC01E054FF4F84917E
:1015A000882349F190E0880F991FFC01E851FF4F13
:1015B000A591B49182529F4FFC01C591D4919FB7E0
:1015C000611108C0F8948C91209582238C938881B6
:1015D00082230AC0623051F4F8948C91322F3095F6
:1015E00083238C938881822B888304C0F8948C9108
:1015F000822B8C939FBFDF91CF9108950F931F9300
:10160000CF93DF931F92CDB7DEB7282F30E0F901DB
:10161000E856FF4F8491F901E455FF4F1491F90109
:10162000E054FF4F04910023C1F0882319F069832F
:1016300083DF6981E02FF0E0EE0FFF1FE252FF4FE2
:10164000A591B4919FB7F8948C91611103C0109546
:10165000812301C0812B8C939FBF0F90DF91CF918D
:101660001F910F910895CF93DF93282F30E0F90158
:10167000E856FF4F8491F901E455FF4FD491F901E9
:10168000E054FF4FC491CC2389F0811155DFEC2F3A
:10169000F0E0EE0FFF1FEC52FF4FA591B4912C919B
:1016A0002D2381E090E021F480E002C080E090E012
:1016B000DF91CF91089597FB072E16F4009406D082
:1016C00077FD08D033D007FC05D03EF49095819586
:1016D0009F4F0895709561957F4F0895A1E21A2E4E
:1016E000AA1BBB1BFD010DC0AA1FBB1FEE1FFF1FC6
:1016F000A217B307E407F50720F0A21BB30BE40B16
:10170000F50B661F771F881F991F1A9469F760955C
:101710007095809590959B01AC01BD01CF01089516
:10172000EE0FFF1F0590F491E02D0994AA1BBB1B3F
:1017300051E107C0AA1FBB1FA617B70710F0A61BD1
:10174000B70B881F991F5A95A9F780959095BC01F2
:08175000CD010895F894FFCFCC
:101758000000000000000000000000000000000081
:101768000000000000000000000000000000000071
:101778000000000000000000000000000000000061
:101788000000000000000000000000000000000051
:101798000000000000000000000000000000000041
:1017A8000000000000000000000000000000000031
:1017B8000000000000000000000000000000000021
:1017C8000000000000000000000000000000000011
:1017D8000000000000000000000000000000000001
:1017E80000000000000000000000000000000000F1
:1017F80000000000000000000000000000000000E1
:1018080000000000000000000000000000000000D0
:1018180000000000000000000000000000000000C0
:1018280000000000000000000000000000000000B0
:1018380000000000000000000000000000000000A0
:1018480000000000010000004E52462050696E73EF
:1018580020496E697469616C697A6564004E524604
:10186800205265616479005258205061796C6F612B
:1018780064205365742052585F50575F50002066AB
:101888006F72200020627974657300520020434F04
:101898004E464947205245474953544552203D003A
:1018A8005052494D5F5258203D2000505258005028
:1018B8005458005057525F5550203D2000504F5704
:1018C800455220555000504F57455220444F574ECF
:1018D800004352434F203D20003242797465730023
:1018E800314279746500454E5F435243203D2000E4
:1018F800456E61626C65640044697361626C65641D
:10190800004D41534B5F4D41585F5254203D2000DC
:10191800496E74657272757074206E6F742072658A
:10192800666C6563746564206F6E20746865204911
:1019380052512070696E005265666C656374204D63
:1019480041585F5254206173206163746976652041
:101958006C6F7720696E74657272757074206F6E23
:1019680020746865204952512070696E004D4153BA
:101978004B5F54585F4453203D20005265666C65A8
:1019880063742054585F4453206173206163746901
:101998007665206C6F7720696E74657272757074E5
:1019A800206F6E20746865204952512070696E005E
:1019B8004D41534B5F52585F4452203D20005265C1
:1019C800666C6563742052585F44522061732061CD
:1019D8006374697665206C6F7720696E74657272BE
:1019E800757074206F6E207468652049525120709C
:1019F800696E0020454E5F41412052454749535486
:101A0800455220456E68616E6365642053686F6354
:101A18006B4275727374203D0020454E5F525841E9
:101A280044445220524547495354455220456E611B
:101A3800626C6564205258204164647265737365F2
:101A480073203D002053455455505F41572052455F
:101A5800474953544552205365747570206F66206A
:101A68004164647265737320576964746873203DB8
:101A7800002053455455505F524554522052454713
:101A88004953544552205365747570206F66204140
:101A980075746F6D617469632052657472616E73D9
:101AA8006D697373696F6E203D002052465F43482D
:101AB80020524547495354455220524620436861B5
:101AC8006E6E656C203D002052465F53455455505C
:101AD8002052454749535445522052462053657475
:101AE8007570205265676973746572203D005246AF
:101AF80020506F776572203D200052465F44525F48
:101B080048494748203D2000504C4C5F4C4F434BC0
:101B1800203D200052465F44525F4C4F57203D20E5
:101B280000434F4E545F57415645203D20002053F7
:101B38005441545553205245474953544552202047
:101B48003D0054585F46554C4C203D2000545820C9
:101B58004649464F2066756C6C00545820464946E5
:101B68004F204E6F742066756C6C0052585F505F42
:101B78004E4F203D20005258204649464F20456D83
:101B8800707479004D41585F525420496E746572E3
:101B980072757074203D200054585F445320496E7C
:101BA80074657272757074203D200052585F4452FB
:101BB80020496E74657272757074203D2000204F44
:101BC8004253455256455F5458205245474953544D
:101BD8004552205472616E736D6974206F6273652B
:101BE80072766520726567697374657220203D009E
:101BF8004152435F434E54203D2000504C4F535FA9
:101C0800434E54203D20002052504420524547491D
:101C18005354455220526563656976656420506F58
:101C2800776572204465746563746F72203D002087
:101C380052585F414444525F5030204C5342203D3B
:101C4800002052585F414444525F5031204C534267
:101C5800203D002052585F414444525F5032204C8E
:101C68005342203D002052585F414444525F503354
:101C7800204C5342203D002052585F414444525F5B
:101C88005034204C5342203D002052585F41444478
:101C9800525F5035204C5342203D002054585F413C
:101CA800444452204C5342203D002052585F505724
:101CB8005F5030205258207061796C6F6164203D0C
:101CC800002052585F50575F5031205258207061A1
:101CD800796C6F6164203D002052585F50575F5007
:101CE80032205258207061796C6F6164203D002069
:101CF80052585F50575F5033205258207061796CAA
:101D08006F6164203D002052585F50575F50342067
:101D18005258207061796C6F6164203D00205258E0
:101D28005F50575F5035205258207061796C6F6151
:101D380064203D00204649464F5F53544154555353
:101D4800205265676973746572203D0052585F457B
:101D58004D505459203D20005258204649464F20A6
:101D6800656D707479004461746120696E20525801
:101D7800204649464F005258204649464F2066752E
:101D88006C6C00417661696C61626C65206C6F6394
:101D98006174696F6E7320696E20525820464946F7
:101DA8004F0054585F454D505459203D2000545819
:101DB800204649464F20656D70747900446174610E
:101DC80020696E205458204649464F004176616983
:101DD8006C61626C65206C6F636174696F6E7320EF
:101DE800696E205458204649464F0054585F524562
:101DF800555345203D200050696E67696E6720770E
:101E08006974682020202020002050494E47205324
:101E180075636365737366756C6C212120002050AF
:101E2800494E47204641494C212120004661696CB2
:101E3800656420746F20736574206D6F6465004657
:101E480061696C656420746F2077726974652070AD
:101E5800696E004661696C656420746F2072656103
:101E6800642070696E004E6F204D6F646520427962
:101E78007465204964656E746966696564210053F8
:101E8800657474696E6720557000000000006F0665
:0A1E98000C08190644062B06640628
:00000001FF
